{
    "contractName": "CarRentalPlatform",
    "abi": [
        {
            "inputs": [],
            "stateMutability": "nonpayable",
            "type": "constructor"
        },
        {
            "anonymous": false,
            "inputs": [
                {
                    "indexed": true,
                    "internalType": "address",
                    "name": "walletAddress",
                    "type": "address"
                },
                {
                    "indexed": false,
                    "internalType": "uint256",
                    "name": "amount",
                    "type": "uint256"
                }
            ],
            "name": "BalanceWithdrawn",
            "type": "event"
        },
        {
            "anonymous": false,
            "inputs": [
                {
                    "indexed": true,
                    "internalType": "uint256",
                    "name": "id",
                    "type": "uint256"
                },
                {
                    "indexed": false,
                    "internalType": "string",
                    "name": "name",
                    "type": "string"
                },
                {
                    "indexed": false,
                    "internalType": "string",
                    "name": "imgUrl",
                    "type": "string"
                },
                {
                    "indexed": false,
                    "internalType": "uint256",
                    "name": "rentFee",
                    "type": "uint256"
                },
                {
                    "indexed": false,
                    "internalType": "uint256",
                    "name": "saleFee",
                    "type": "uint256"
                }
            ],
            "name": "CarAdded",
            "type": "event"
        },
        {
            "anonymous": false,
            "inputs": [
                {
                    "indexed": true,
                    "internalType": "uint256",
                    "name": "id",
                    "type": "uint256"
                },
                {
                    "indexed": false,
                    "internalType": "string",
                    "name": "name",
                    "type": "string"
                },
                {
                    "indexed": false,
                    "internalType": "string",
                    "name": "imgUrl",
                    "type": "string"
                },
                {
                    "indexed": false,
                    "internalType": "uint256",
                    "name": "rentFee",
                    "type": "uint256"
                },
                {
                    "indexed": false,
                    "internalType": "uint256",
                    "name": "saleFee",
                    "type": "uint256"
                }
            ],
            "name": "CarMetaDataEdited",
            "type": "event"
        },
        {
            "anonymous": false,
            "inputs": [
                {
                    "indexed": true,
                    "internalType": "uint256",
                    "name": "id",
                    "type": "uint256"
                },
                {
                    "indexed": false,
                    "internalType": "enum CarRentalPlatform.Status",
                    "name": "status",
                    "type": "uint8"
                }
            ],
            "name": "CarStatusEdited",
            "type": "event"
        },
        {
            "anonymous": false,
            "inputs": [
                {
                    "indexed": true,
                    "internalType": "address",
                    "name": "walletAddress",
                    "type": "address"
                },
                {
                    "indexed": true,
                    "internalType": "uint256",
                    "name": "carId",
                    "type": "uint256"
                }
            ],
            "name": "CheckIn",
            "type": "event"
        },
        {
            "anonymous": false,
            "inputs": [
                {
                    "indexed": true,
                    "internalType": "address",
                    "name": "walletAddress",
                    "type": "address"
                },
                {
                    "indexed": true,
                    "internalType": "uint256",
                    "name": "carId",
                    "type": "uint256"
                }
            ],
            "name": "CheckOut",
            "type": "event"
        },
        {
            "anonymous": false,
            "inputs": [
                {
                    "indexed": true,
                    "internalType": "address",
                    "name": "walletAddress",
                    "type": "address"
                },
                {
                    "indexed": false,
                    "internalType": "uint256",
                    "name": "amount",
                    "type": "uint256"
                }
            ],
            "name": "Deposit",
            "type": "event"
        },
        {
            "anonymous": false,
            "inputs": [
                {
                    "indexed": true,
                    "internalType": "address",
                    "name": "walletAddress",
                    "type": "address"
                },
                {
                    "indexed": false,
                    "internalType": "uint256",
                    "name": "amount",
                    "type": "uint256"
                }
            ],
            "name": "PaymentMade",
            "type": "event"
        },
        {
            "anonymous": false,
            "inputs": [
                {
                    "indexed": true,
                    "internalType": "address",
                    "name": "walletAddress",
                    "type": "address"
                },
                {
                    "indexed": false,
                    "internalType": "string",
                    "name": "name",
                    "type": "string"
                },
                {
                    "indexed": false,
                    "internalType": "string",
                    "name": "lastname",
                    "type": "string"
                }
            ],
            "name": "UserAdded",
            "type": "event"
        },
        {
            "inputs": [
                {
                    "internalType": "address",
                    "name": "_newOwner",
                    "type": "address"
                }
            ],
            "name": "setOwner",
            "outputs": [],
            "stateMutability": "nonpayable",
            "type": "function"
        },
        {
            "inputs": [
                {
                    "internalType": "string",
                    "name": "name",
                    "type": "string"
                },
                {
                    "internalType": "string",
                    "name": "lastname",
                    "type": "string"
                }
            ],
            "name": "addUser",
            "outputs": [],
            "stateMutability": "nonpayable",
            "type": "function"
        },
        {
            "inputs": [
                {
                    "internalType": "string",
                    "name": "name",
                    "type": "string"
                },
                {
                    "internalType": "string",
                    "name": "url",
                    "type": "string"
                },
                {
                    "internalType": "uint256",
                    "name": "rent",
                    "type": "uint256"
                },
                {
                    "internalType": "uint256",
                    "name": "sale",
                    "type": "uint256"
                }
            ],
            "name": "addCar",
            "outputs": [],
            "stateMutability": "nonpayable",
            "type": "function"
        },
        {
            "inputs": [
                {
                    "internalType": "uint256",
                    "name": "id",
                    "type": "uint256"
                },
                {
                    "internalType": "string",
                    "name": "name",
                    "type": "string"
                },
                {
                    "internalType": "string",
                    "name": "imgUrl",
                    "type": "string"
                },
                {
                    "internalType": "uint256",
                    "name": "rentFee",
                    "type": "uint256"
                },
                {
                    "internalType": "uint256",
                    "name": "saleFee",
                    "type": "uint256"
                }
            ],
            "name": "editCarMetaData",
            "outputs": [],
            "stateMutability": "nonpayable",
            "type": "function"
        },
        {
            "inputs": [
                {
                    "internalType": "uint256",
                    "name": "id",
                    "type": "uint256"
                },
                {
                    "internalType": "enum CarRentalPlatform.Status",
                    "name": "status",
                    "type": "uint8"
                }
            ],
            "name": "editCarStatus",
            "outputs": [],
            "stateMutability": "nonpayable",
            "type": "function"
        },
        {
            "inputs": [
                {
                    "internalType": "uint256",
                    "name": "id",
                    "type": "uint256"
                }
            ],
            "name": "checkOut",
            "outputs": [],
            "stateMutability": "nonpayable",
            "type": "function"
        },
        {
            "inputs": [],
            "name": "checkIn",
            "outputs": [],
            "stateMutability": "nonpayable",
            "type": "function"
        },
        {
            "inputs": [],
            "name": "deposit",
            "outputs": [],
            "stateMutability": "payable",
            "type": "function",
            "payable": true
        },
        {
            "inputs": [],
            "name": "makePayment",
            "outputs": [],
            "stateMutability": "nonpayable",
            "type": "function"
        },
        {
            "inputs": [
                {
                    "internalType": "uint256",
                    "name": "amount",
                    "type": "uint256"
                }
            ],
            "name": "withDrawBalance",
            "outputs": [],
            "stateMutability": "nonpayable",
            "type": "function"
        },
        {
            "inputs": [
                {
                    "internalType": "uint256",
                    "name": "amount",
                    "type": "uint256"
                }
            ],
            "name": "withDrawnOwnerBalance",
            "outputs": [],
            "stateMutability": "nonpayable",
            "type": "function"
        },
        {
            "inputs": [],
            "name": "getOwner",
            "outputs": [
                {
                    "internalType": "address",
                    "name": "",
                    "type": "address"
                }
            ],
            "stateMutability": "view",
            "type": "function",
            "constant": true
        },
        {
            "inputs": [
                {
                    "internalType": "address",
                    "name": "walletAddress",
                    "type": "address"
                }
            ],
            "name": "getUser",
            "outputs": [
                {
                    "components": [
                        {
                            "internalType": "address",
                            "name": "walletAddress",
                            "type": "address"
                        },
                        {
                            "internalType": "string",
                            "name": "name",
                            "type": "string"
                        },
                        {
                            "internalType": "string",
                            "name": "lastname",
                            "type": "string"
                        },
                        {
                            "internalType": "uint256",
                            "name": "rentedCarId",
                            "type": "uint256"
                        },
                        {
                            "internalType": "uint256",
                            "name": "balance",
                            "type": "uint256"
                        },
                        {
                            "internalType": "uint256",
                            "name": "debt",
                            "type": "uint256"
                        },
                        {
                            "internalType": "uint256",
                            "name": "start",
                            "type": "uint256"
                        }
                    ],
                    "internalType": "struct CarRentalPlatform.User",
                    "name": "",
                    "type": "tuple"
                }
            ],
            "stateMutability": "view",
            "type": "function",
            "constant": true
        },
        {
            "inputs": [
                {
                    "internalType": "uint256",
                    "name": "id",
                    "type": "uint256"
                }
            ],
            "name": "getCar",
            "outputs": [
                {
                    "components": [
                        {
                            "internalType": "uint256",
                            "name": "id",
                            "type": "uint256"
                        },
                        {
                            "internalType": "string",
                            "name": "name",
                            "type": "string"
                        },
                        {
                            "internalType": "string",
                            "name": "imgUrl",
                            "type": "string"
                        },
                        {
                            "internalType": "enum CarRentalPlatform.Status",
                            "name": "status",
                            "type": "uint8"
                        },
                        {
                            "internalType": "uint256",
                            "name": "rentFee",
                            "type": "uint256"
                        },
                        {
                            "internalType": "uint256",
                            "name": "saleFee",
                            "type": "uint256"
                        }
                    ],
                    "internalType": "struct CarRentalPlatform.Car",
                    "name": "",
                    "type": "tuple"
                }
            ],
            "stateMutability": "view",
            "type": "function",
            "constant": true
        },
        {
            "inputs": [
                {
                    "internalType": "enum CarRentalPlatform.Status",
                    "name": "_status",
                    "type": "uint8"
                }
            ],
            "name": "getCarsByStatus",
            "outputs": [
                {
                    "components": [
                        {
                            "internalType": "uint256",
                            "name": "id",
                            "type": "uint256"
                        },
                        {
                            "internalType": "string",
                            "name": "name",
                            "type": "string"
                        },
                        {
                            "internalType": "string",
                            "name": "imgUrl",
                            "type": "string"
                        },
                        {
                            "internalType": "enum CarRentalPlatform.Status",
                            "name": "status",
                            "type": "uint8"
                        },
                        {
                            "internalType": "uint256",
                            "name": "rentFee",
                            "type": "uint256"
                        },
                        {
                            "internalType": "uint256",
                            "name": "saleFee",
                            "type": "uint256"
                        }
                    ],
                    "internalType": "struct CarRentalPlatform.Car[]",
                    "name": "",
                    "type": "tuple[]"
                }
            ],
            "stateMutability": "view",
            "type": "function",
            "constant": true
        },
        {
            "inputs": [],
            "name": "getCurrentCount",
            "outputs": [
                {
                    "internalType": "uint256",
                    "name": "",
                    "type": "uint256"
                }
            ],
            "stateMutability": "view",
            "type": "function",
            "constant": true
        },
        {
            "inputs": [],
            "name": "getContractBalance",
            "outputs": [
                {
                    "internalType": "uint256",
                    "name": "",
                    "type": "uint256"
                }
            ],
            "stateMutability": "view",
            "type": "function",
            "constant": true
        },
        {
            "inputs": [],
            "name": "getTotalPayments",
            "outputs": [
                {
                    "internalType": "uint256",
                    "name": "",
                    "type": "uint256"
                }
            ],
            "stateMutability": "view",
            "type": "function",
            "constant": true
        }
    ],
    "bytecode": "0x608060405234801561001057600080fd5b50600160008190555033600260006101000a81548173ffffffffffffffffffffffffffffffffffffffff021916908373ffffffffffffffffffffffffffffffffffffffff1602179055506000600381905550613e26806100716000396000f3fe6080604052600436106101095760003560e01c80636f9fb98a116100955780639a43da73116100645780639a43da731461033f578063ba38ccf614610368578063d0e30db0146103a5578063d8d79700146103af578063dd51babf146103c657610109565b80636f9fb98a14610295578063708f29a6146102c05780637ad81e16146102eb578063893d20e81461031457610109565b80631bd2eeee116100dc5780631bd2eeee146101a05780634865bed2146101c95780635e8be190146101f25780636ba9a40b1461022f5780636f77926b1461025857610109565b8063079eaf341461010e57806313af403514610137578063182ead6514610160578063183ff08514610189575b600080fd5b34801561011a57600080fd5b50610135600480360381019061013091906126ab565b6103f1565b005b34801561014357600080fd5b5061015e6004803603810190610159919061278a565b6106c4565b005b34801561016c57600080fd5b50610187600480360381019061018291906127ed565b610798565b005b34801561019557600080fd5b5061019e61094f565b005b3480156101ac57600080fd5b506101c760048036038101906101c291906127ed565b610c4b565b005b3480156101d557600080fd5b506101f060048036038101906101eb919061281a565b610f47565b005b3480156101fe57600080fd5b50610219600480360381019061021491906127ed565b6111e3565b6040516102269190612a67565b60405180910390f35b34801561023b57600080fd5b50610256600480360381019061025191906127ed565b6113e6565b005b34801561026457600080fd5b5061027f600480360381019061027a919061278a565b611617565b60405161028c9190612b3b565b60405180910390f35b3480156102a157600080fd5b506102aa61185a565b6040516102b79190612b6c565b60405180910390f35b3480156102cc57600080fd5b506102d56118f2565b6040516102e29190612b6c565b60405180910390f35b3480156102f757600080fd5b50610312600480360381019061030d9190612b87565b61198c565b005b34801561032057600080fd5b50610329611b48565b6040516103369190612c52565b60405180910390f35b34801561034b57600080fd5b5061036660048036038101906103619190612c92565b611b72565b005b34801561037457600080fd5b5061038f600480360381019061038a9190612cd2565b611cd5565b60405161039c9190612e51565b60405180910390f35b6103ad612004565b005b3480156103bb57600080fd5b506103c46120f5565b005b3480156103d257600080fd5b506103db612450565b6040516103e89190612b6c565b60405180910390f35b6103fa33612461565b1561043a576040517f08c379a000000000000000000000000000000000000000000000000000000000815260040161043190612ed0565b60405180910390fd5b6040518060e001604052803373ffffffffffffffffffffffffffffffffffffffff16815260200185858080601f016020809104026020016040519081016040528093929190818152602001838380828437600081840152601f19601f82011690508083019250505050505050815260200183838080601f016020809104026020016040519081016040528093929190818152602001838380828437600081840152601f19601f8201169050808301925050505050505081526020016000815260200160008152602001600081526020016000815250600460003373ffffffffffffffffffffffffffffffffffffffff1673ffffffffffffffffffffffffffffffffffffffff16815260200190815260200160002060008201518160000160006101000a81548173ffffffffffffffffffffffffffffffffffffffff021916908373ffffffffffffffffffffffffffffffffffffffff16021790555060208201518160010190816105aa919061312b565b5060408201518160020190816105c0919061312b565b50606082015181600301556080820151816004015560a0820151816005015560c082015181600601559050503373ffffffffffffffffffffffffffffffffffffffff167f8eab1db142a914aff8b515eedb9177bd7effaef6d714c41e30bdf15206778607600460003373ffffffffffffffffffffffffffffffffffffffff1673ffffffffffffffffffffffffffffffffffffffff168152602001908152602001600020600101600460003373ffffffffffffffffffffffffffffffffffffffff1673ffffffffffffffffffffffffffffffffffffffff1681526020019081526020016000206002016040516106b6929190613281565b60405180910390a250505050565b600260009054906101000a900473ffffffffffffffffffffffffffffffffffffffff1673ffffffffffffffffffffffffffffffffffffffff163373ffffffffffffffffffffffffffffffffffffffff1614610754576040517f08c379a000000000000000000000000000000000000000000000000000000000815260040161074b9061332a565b60405180910390fd5b80600260006101000a81548173ffffffffffffffffffffffffffffffffffffffff021916908373ffffffffffffffffffffffffffffffffffffffff16021790555050565b600260009054906101000a900473ffffffffffffffffffffffffffffffffffffffff1673ffffffffffffffffffffffffffffffffffffffff163373ffffffffffffffffffffffffffffffffffffffff1614610828576040517f08c379a000000000000000000000000000000000000000000000000000000000815260040161081f9061332a565b60405180910390fd5b80600354101561086d576040517f08c379a0000000000000000000000000000000000000000000000000000000008152600401610864906133bc565b60405180910390fd5b6000600260009054906101000a900473ffffffffffffffffffffffffffffffffffffffff1673ffffffffffffffffffffffffffffffffffffffff16826040516108b59061340d565b60006040518083038185875af1925050503d80600081146108f2576040519150601f19603f3d011682016040523d82523d6000602084013e6108f7565b606091505b505090508061093b576040517f08c379a00000000000000000000000000000000000000000000000000000000081526004016109329061346e565b60405180910390fd5b816003600082825403925050819055505050565b61095833612461565b610997576040517f08c379a000000000000000000000000000000000000000000000000000000000815260040161098e906134da565b60405180910390fd5b6000600460003373ffffffffffffffffffffffffffffffffffffffff1673ffffffffffffffffffffffffffffffffffffffff16815260200190815260200160002060030154905060008103610a21576040517f08c379a0000000000000000000000000000000000000000000000000000000008152600401610a1890613546565b60405180910390fd5b6000600460003373ffffffffffffffffffffffffffffffffffffffff1673ffffffffffffffffffffffffffffffffffffffff1681526020019081526020016000206006015442610a719190613595565b905060004203610ab6576040517f08c379a0000000000000000000000000000000000000000000000000000000008152600401610aad90613615565b60405180910390fd5b600060056000848152602001908152602001600020600401549050610adb82826124fc565b600460003373ffffffffffffffffffffffffffffffffffffffff1673ffffffffffffffffffffffffffffffffffffffff1681526020019081526020016000206005016000828254610b2c9190613635565b925050819055506000600460003373ffffffffffffffffffffffffffffffffffffffff1673ffffffffffffffffffffffffffffffffffffffff168152602001908152602001600020600301819055506000600460003373ffffffffffffffffffffffffffffffffffffffff1673ffffffffffffffffffffffffffffffffffffffff1681526020019081526020016000206006018190555060026005600085815260200190815260200160002060030160006101000a81548160ff02191690836002811115610bfd57610bfc612960565b5b0217905550823373ffffffffffffffffffffffffffffffffffffffff167fa864a8b988e604bb05d6ce75d53efabb5620c45b15380b7bd0c51dcfa71dda0360405160405180910390a3505050565b610c5433612461565b610c93576040517f08c379a0000000000000000000000000000000000000000000000000000000008152600401610c8a906134da565b60405180910390fd5b600280811115610ca657610ca5612960565b5b6005600083815260200190815260200160002060030160009054906101000a900460ff166002811115610cdc57610cdb612960565b5b14610d1c576040517f08c379a0000000000000000000000000000000000000000000000000000000008152600401610d13906136b5565b60405180910390fd5b6000600460003373ffffffffffffffffffffffffffffffffffffffff1673ffffffffffffffffffffffffffffffffffffffff1681526020019081526020016000206003015414610da1576040517f08c379a0000000000000000000000000000000000000000000000000000000008152600401610d9890613721565b60405180910390fd5b6000600460003373ffffffffffffffffffffffffffffffffffffffff1673ffffffffffffffffffffffffffffffffffffffff1681526020019081526020016000206005015414610e26576040517f08c379a0000000000000000000000000000000000000000000000000000000008152600401610e1d9061378d565b60405180910390fd5b61177042610e349190613595565b600460003373ffffffffffffffffffffffffffffffffffffffff1673ffffffffffffffffffffffffffffffffffffffff1681526020019081526020016000206006018190555080600460003373ffffffffffffffffffffffffffffffffffffffff1673ffffffffffffffffffffffffffffffffffffffff1681526020019081526020016000206003018190555060016005600083815260200190815260200160002060030160006101000a81548160ff02191690836002811115610efb57610efa612960565b5b0217905550803373ffffffffffffffffffffffffffffffffffffffff167ff65ce03794824579bcd95d8c6743ffc10c4a5e7405fb3876c1abf81453105c4260405160405180910390a350565b600260009054906101000a900473ffffffffffffffffffffffffffffffffffffffff1673ffffffffffffffffffffffffffffffffffffffff163373ffffffffffffffffffffffffffffffffffffffff1614610fd7576040517f08c379a0000000000000000000000000000000000000000000000000000000008152600401610fce9061332a565b60405180910390fd5b610fe16001612524565b6000610fed600161253a565b90506040518060c0016040528082815260200188888080601f016020809104026020016040519081016040528093929190818152602001838380828437600081840152601f19601f82011690508083019250505050505050815260200186868080601f016020809104026020016040519081016040528093929190818152602001838380828437600081840152601f19601f8201169050808301925050505050505081526020016002808111156110a7576110a6612960565b5b815260200184815260200183815250600560008381526020019081526020016000206000820151816000015560208201518160010190816110e8919061312b565b5060408201518160020190816110fe919061312b565b5060608201518160030160006101000a81548160ff0219169083600281111561112a57611129612960565b5b02179055506080820151816004015560a08201518160050155905050807f1d26cfb076fd58c1fa5695bb34e5556995a0aa34ecc601438f9957d6a71439a36005600084815260200190815260200160002060010160056000858152602001908152602001600020600201600560008681526020019081526020016000206004015460056000878152602001908152602001600020600501546040516111d294939291906137ad565b60405180910390a250505050505050565b6111eb6125a1565b6000600560008481526020019081526020016000206000015403611244576040517f08c379a000000000000000000000000000000000000000000000000000000000815260040161123b9061384c565b60405180910390fd5b600560008381526020019081526020016000206040518060c00160405290816000820154815260200160018201805461127c90612f4e565b80601f01602080910402602001604051908101604052809291908181526020018280546112a890612f4e565b80156112f55780601f106112ca576101008083540402835291602001916112f5565b820191906000526020600020905b8154815290600101906020018083116112d857829003601f168201915b5050505050815260200160028201805461130e90612f4e565b80601f016020809104026020016040519081016040528092919081815260200182805461133a90612f4e565b80156113875780601f1061135c57610100808354040283529160200191611387565b820191906000526020600020905b81548152906001019060200180831161136a57829003601f168201915b505050505081526020016003820160009054906101000a900460ff1660028111156113b5576113b4612960565b5b60028111156113c7576113c6612960565b5b8152602001600482015481526020016005820154815250509050919050565b6113ee612548565b6113f733612461565b611436576040517f08c379a000000000000000000000000000000000000000000000000000000000815260040161142d906134da565b60405180910390fd5b6000600460003373ffffffffffffffffffffffffffffffffffffffff1673ffffffffffffffffffffffffffffffffffffffff168152602001908152602001600020600401549050818110156114c0576040517f08c379a00000000000000000000000000000000000000000000000000000000081526004016114b7906138de565b60405180910390fd5b81600460003373ffffffffffffffffffffffffffffffffffffffff1673ffffffffffffffffffffffffffffffffffffffff1681526020019081526020016000206004016000828254039250508190555060003373ffffffffffffffffffffffffffffffffffffffff16836040516115369061340d565b60006040518083038185875af1925050503d8060008114611573576040519150601f19603f3d011682016040523d82523d6000602084013e611578565b606091505b50509050806115bc576040517f08c379a00000000000000000000000000000000000000000000000000000000081526004016115b39061394a565b60405180910390fd5b3373ffffffffffffffffffffffffffffffffffffffff167fddc398b321237a8d40ac914388309c2f52a08c134e4dc4ce61e32f57cb7d80f1846040516116029190612b6c565b60405180910390a25050611614612597565b50565b61161f6125e9565b61162882612461565b611667576040517f08c379a000000000000000000000000000000000000000000000000000000000815260040161165e906134da565b60405180910390fd5b600460008373ffffffffffffffffffffffffffffffffffffffff1673ffffffffffffffffffffffffffffffffffffffff1681526020019081526020016000206040518060e00160405290816000820160009054906101000a900473ffffffffffffffffffffffffffffffffffffffff1673ffffffffffffffffffffffffffffffffffffffff1673ffffffffffffffffffffffffffffffffffffffff16815260200160018201805461171790612f4e565b80601f016020809104026020016040519081016040528092919081815260200182805461174390612f4e565b80156117905780601f1061176557610100808354040283529160200191611790565b820191906000526020600020905b81548152906001019060200180831161177357829003601f168201915b505050505081526020016002820180546117a990612f4e565b80601f01602080910402602001604051908101604052809291908181526020018280546117d590612f4e565b80156118225780601f106117f757610100808354040283529160200191611822565b820191906000526020600020905b81548152906001019060200180831161180557829003601f168201915b505050505081526020016003820154815260200160048201548152602001600582015481526020016006820154815250509050919050565b6000600260009054906101000a900473ffffffffffffffffffffffffffffffffffffffff1673ffffffffffffffffffffffffffffffffffffffff163373ffffffffffffffffffffffffffffffffffffffff16146118ec576040517f08c379a00000000000000000000000000000000000000000000000000000000081526004016118e39061332a565b60405180910390fd5b47905090565b6000600260009054906101000a900473ffffffffffffffffffffffffffffffffffffffff1673ffffffffffffffffffffffffffffffffffffffff163373ffffffffffffffffffffffffffffffffffffffff1614611984576040517f08c379a000000000000000000000000000000000000000000000000000000000815260040161197b9061332a565b60405180910390fd5b600354905090565b600260009054906101000a900473ffffffffffffffffffffffffffffffffffffffff1673ffffffffffffffffffffffffffffffffffffffff163373ffffffffffffffffffffffffffffffffffffffff1614611a1c576040517f08c379a0000000000000000000000000000000000000000000000000000000008152600401611a139061332a565b60405180910390fd5b6000600560008981526020019081526020016000206000015403611a75576040517f08c379a0000000000000000000000000000000000000000000000000000000008152600401611a6c906139dc565b60405180910390fd5b600060056000898152602001908152602001600020905060008787905014611aac578686826001019182611aaa929190613a07565b505b60008585905014611acc578484826002019182611aca929190613a07565b505b6000831115611adf578281600401819055505b6000821115611af2578181600501819055505b877fac3f0b6e76f8d87a931445cbce32038343737663b19ff1d0712f8431f8168e5b826001018360020184600401548560050154604051611b3694939291906137ad565b60405180910390a25050505050505050565b6000600260009054906101000a900473ffffffffffffffffffffffffffffffffffffffff16905090565b600260009054906101000a900473ffffffffffffffffffffffffffffffffffffffff1673ffffffffffffffffffffffffffffffffffffffff163373ffffffffffffffffffffffffffffffffffffffff1614611c02576040517f08c379a0000000000000000000000000000000000000000000000000000000008152600401611bf99061332a565b60405180910390fd5b6000600560008481526020019081526020016000206000015403611c5b576040517f08c379a0000000000000000000000000000000000000000000000000000000008152600401611c5290613b23565b60405180910390fd5b806005600084815260200190815260200160002060030160006101000a81548160ff02191690836002811115611c9457611c93612960565b5b0217905550817fa2038badc9c4004a10f632052c54b0011bb307c2cadc65f22071f61ffd10663382604051611cc99190613b52565b60405180910390a25050565b6060600080611ce4600161253a565b90506000600190505b818111611d6457846002811115611d0757611d06612960565b5b6005600083815260200190815260200160002060030160009054906101000a900460ff166002811115611d3d57611d3c612960565b5b03611d51578280611d4d90613b6d565b9350505b8080611d5c90613b6d565b915050611ced565b5060008267ffffffffffffffff811115611d8157611d80612ef0565b5b604051908082528060200260200182016040528015611dba57816020015b611da76125a1565b815260200190600190039081611d9f5790505b509050600092506000600190505b828111611ff857856002811115611de257611de1612960565b5b6005600083815260200190815260200160002060030160009054906101000a900460ff166002811115611e1857611e17612960565b5b03611fe557600560008281526020019081526020016000206040518060c001604052908160008201548152602001600182018054611e5590612f4e565b80601f0160208091040260200160405190810160405280929190818152602001828054611e8190612f4e565b8015611ece5780601f10611ea357610100808354040283529160200191611ece565b820191906000526020600020905b815481529060010190602001808311611eb157829003601f168201915b50505050508152602001600282018054611ee790612f4e565b80601f0160208091040260200160405190810160405280929190818152602001828054611f1390612f4e565b8015611f605780601f10611f3557610100808354040283529160200191611f60565b820191906000526020600020905b815481529060010190602001808311611f4357829003601f168201915b505050505081526020016003820160009054906101000a900460ff166002811115611f8e57611f8d612960565b5b6002811115611fa057611f9f612960565b5b815260200160048201548152602001600582015481525050828581518110611fcb57611fca613bb5565b5b60200260200101819052508380611fe190613b6d565b9450505b8080611ff090613b6d565b915050611dc8565b50809350505050919050565b61200d33612461565b61204c576040517f08c379a0000000000000000000000000000000000000000000000000000000008152600401612043906134da565b60405180910390fd5b34600460003373ffffffffffffffffffffffffffffffffffffffff1673ffffffffffffffffffffffffffffffffffffffff168152602001908152602001600020600401600082825461209e9190613635565b925050819055503373ffffffffffffffffffffffffffffffffffffffff167fe1fffcc4923d04b559f4d29a8bfc6cda04eb5b0d3c460751c2402c5c5cc9109c346040516120eb9190612b6c565b60405180910390a2565b6120fe33612461565b61213d576040517f08c379a0000000000000000000000000000000000000000000000000000000008152600401612134906134da565b60405180910390fd5b6000600460003373ffffffffffffffffffffffffffffffffffffffff1673ffffffffffffffffffffffffffffffffffffffff16815260200190815260200160002060050154116121c2576040517f08c379a00000000000000000000000000000000000000000000000000000000081526004016121b990613c30565b60405180910390fd5b600460003373ffffffffffffffffffffffffffffffffffffffff1673ffffffffffffffffffffffffffffffffffffffff16815260200190815260200160002060050154600460003373ffffffffffffffffffffffffffffffffffffffff1673ffffffffffffffffffffffffffffffffffffffff168152602001908152602001600020600401541015612289576040517f08c379a000000000000000000000000000000000000000000000000000000000815260040161228090613cc2565b60405180910390fd5b600460003373ffffffffffffffffffffffffffffffffffffffff1673ffffffffffffffffffffffffffffffffffffffff16815260200190815260200160002060050154600460003373ffffffffffffffffffffffffffffffffffffffff1673ffffffffffffffffffffffffffffffffffffffff16815260200190815260200160002060040160008282540392505081905550600460003373ffffffffffffffffffffffffffffffffffffffff1673ffffffffffffffffffffffffffffffffffffffff168152602001908152602001600020600501546003600082825461236f9190613635565b925050819055506000600460003373ffffffffffffffffffffffffffffffffffffffff1673ffffffffffffffffffffffffffffffffffffffff168152602001908152602001600020600501819055503373ffffffffffffffffffffffffffffffffffffffff167f3a2d0e41c506b136330c6e5e0295ccbf0966daece99bfe7c89020cc01dbfb8d6600460003373ffffffffffffffffffffffffffffffffffffffff1673ffffffffffffffffffffffffffffffffffffffff168152602001908152602001600020600501546040516124469190612b6c565b60405180910390a2565b600061245c600161253a565b905090565b60008073ffffffffffffffffffffffffffffffffffffffff16600460008473ffffffffffffffffffffffffffffffffffffffff1673ffffffffffffffffffffffffffffffffffffffff16815260200190815260200160002060000160009054906101000a900473ffffffffffffffffffffffffffffffffffffffff1673ffffffffffffffffffffffffffffffffffffffff1614159050919050565b6000806103e88461250d9190613d11565b9050828161251b9190613d42565b91505092915050565b6001816000016000828254019250508190555050565b600081600001549050919050565b60026000540361258d576040517f08c379a000000000000000000000000000000000000000000000000000000000815260040161258490613dd0565b60405180910390fd5b6002600081905550565b6001600081905550565b6040518060c00160405280600081526020016060815260200160608152602001600060028111156125d5576125d4612960565b5b815260200160008152602001600081525090565b6040518060e00160405280600073ffffffffffffffffffffffffffffffffffffffff1681526020016060815260200160608152602001600081526020016000815260200160008152602001600081525090565b600080fd5b600080fd5b600080fd5b600080fd5b600080fd5b60008083601f84011261266b5761266a612646565b5b8235905067ffffffffffffffff8111156126885761268761264b565b5b6020830191508360018202830111156126a4576126a3612650565b5b9250929050565b600080600080604085870312156126c5576126c461263c565b5b600085013567ffffffffffffffff8111156126e3576126e2612641565b5b6126ef87828801612655565b9450945050602085013567ffffffffffffffff81111561271257612711612641565b5b61271e87828801612655565b925092505092959194509250565b600073ffffffffffffffffffffffffffffffffffffffff82169050919050565b60006127578261272c565b9050919050565b6127678161274c565b811461277257600080fd5b50565b6000813590506127848161275e565b92915050565b6000602082840312156127a05761279f61263c565b5b60006127ae84828501612775565b91505092915050565b6000819050919050565b6127ca816127b7565b81146127d557600080fd5b50565b6000813590506127e7816127c1565b92915050565b6000602082840312156128035761280261263c565b5b6000612811848285016127d8565b91505092915050565b600080600080600080608087890312156128375761283661263c565b5b600087013567ffffffffffffffff81111561285557612854612641565b5b61286189828a01612655565b9650965050602087013567ffffffffffffffff81111561288457612883612641565b5b61289089828a01612655565b945094505060406128a389828a016127d8565b92505060606128b489828a016127d8565b9150509295509295509295565b6128ca816127b7565b82525050565b600081519050919050565b600082825260208201905092915050565b60005b8381101561290a5780820151818401526020810190506128ef565b60008484015250505050565b6000601f19601f8301169050919050565b6000612932826128d0565b61293c81856128db565b935061294c8185602086016128ec565b61295581612916565b840191505092915050565b7f4e487b7100000000000000000000000000000000000000000000000000000000600052602160045260246000fd5b600381106129a05761299f612960565b5b50565b60008190506129b18261298f565b919050565b60006129c1826129a3565b9050919050565b6129d1816129b6565b82525050565b600060c0830160008301516129ef60008601826128c1565b5060208301518482036020860152612a078282612927565b91505060408301518482036040860152612a218282612927565b9150506060830151612a3660608601826129c8565b506080830151612a4960808601826128c1565b5060a0830151612a5c60a08601826128c1565b508091505092915050565b60006020820190508181036000830152612a8181846129d7565b905092915050565b612a928161274c565b82525050565b600060e083016000830151612ab06000860182612a89565b5060208301518482036020860152612ac88282612927565b91505060408301518482036040860152612ae28282612927565b9150506060830151612af760608601826128c1565b506080830151612b0a60808601826128c1565b5060a0830151612b1d60a08601826128c1565b5060c0830151612b3060c08601826128c1565b508091505092915050565b60006020820190508181036000830152612b558184612a98565b905092915050565b612b66816127b7565b82525050565b6000602082019050612b816000830184612b5d565b92915050565b600080600080600080600060a0888a031215612ba657612ba561263c565b5b6000612bb48a828b016127d8565b975050602088013567ffffffffffffffff811115612bd557612bd4612641565b5b612be18a828b01612655565b9650965050604088013567ffffffffffffffff811115612c0457612c03612641565b5b612c108a828b01612655565b94509450506060612c238a828b016127d8565b9250506080612c348a828b016127d8565b91505092959891949750929550565b612c4c8161274c565b82525050565b6000602082019050612c676000830184612c43565b92915050565b60038110612c7a57600080fd5b50565b600081359050612c8c81612c6d565b92915050565b60008060408385031215612ca957612ca861263c565b5b6000612cb7858286016127d8565b9250506020612cc885828601612c7d565b9150509250929050565b600060208284031215612ce857612ce761263c565b5b6000612cf684828501612c7d565b91505092915050565b600081519050919050565b600082825260208201905092915050565b6000819050602082019050919050565b600060c083016000830151612d4360008601826128c1565b5060208301518482036020860152612d5b8282612927565b91505060408301518482036040860152612d758282612927565b9150506060830151612d8a60608601826129c8565b506080830151612d9d60808601826128c1565b5060a0830151612db060a08601826128c1565b508091505092915050565b6000612dc78383612d2b565b905092915050565b6000602082019050919050565b6000612de782612cff565b612df18185612d0a565b935083602082028501612e0385612d1b565b8060005b85811015612e3f5784840389528151612e208582612dbb565b9450612e2b83612dcf565b925060208a01995050600181019050612e07565b50829750879550505050505092915050565b60006020820190508181036000830152612e6b8184612ddc565b905092915050565b600082825260208201905092915050565b7f5573657220616c72656164792065786973747321000000000000000000000000600082015250565b6000612eba601483612e73565b9150612ec582612e84565b602082019050919050565b60006020820190508181036000830152612ee981612ead565b9050919050565b7f4e487b7100000000000000000000000000000000000000000000000000000000600052604160045260246000fd5b7f4e487b7100000000000000000000000000000000000000000000000000000000600052602260045260246000fd5b60006002820490506001821680612f6657607f821691505b602082108103612f7957612f78612f1f565b5b50919050565b60008190508160005260206000209050919050565b60006020601f8301049050919050565b600082821b905092915050565b600060088302612fe17fffffffffffffffffffffffffffffffffffffffffffffffffffffffffffffffff82612fa4565b612feb8683612fa4565b95508019841693508086168417925050509392505050565b6000819050919050565b600061302861302361301e846127b7565b613003565b6127b7565b9050919050565b6000819050919050565b6130428361300d565b61305661304e8261302f565b848454612fb1565b825550505050565b600090565b61306b61305e565b613076818484613039565b505050565b5b8181101561309a5761308f600082613063565b60018101905061307c565b5050565b601f8211156130df576130b081612f7f565b6130b984612f94565b810160208510156130c8578190505b6130dc6130d485612f94565b83018261307b565b50505b505050565b600082821c905092915050565b6000613102600019846008026130e4565b1980831691505092915050565b600061311b83836130f1565b9150826002028217905092915050565b613134826128d0565b67ffffffffffffffff81111561314d5761314c612ef0565b5b6131578254612f4e565b61316282828561309e565b600060209050601f8311600181146131955760008415613183578287015190505b61318d858261310f565b8655506131f5565b601f1984166131a386612f7f565b60005b828110156131cb578489015182556001820191506020850194506020810190506131a6565b868310156131e857848901516131e4601f8916826130f1565b8355505b6001600288020188555050505b505050505050565b6000815461320a81612f4e565b6132148186612e73565b9450600182166000811461322f576001811461324557613278565b60ff198316865281151560200286019350613278565b61324e85612f7f565b60005b8381101561327057815481890152600182019150602081019050613251565b808801955050505b50505092915050565b6000604082019050818103600083015261329b81856131fd565b905081810360208301526132af81846131fd565b90509392505050565b7f4f6e6c7920746865206f776e65722063616e2063616c6c20746869732066756e60008201527f6374696f6e000000000000000000000000000000000000000000000000000000602082015250565b6000613314602583612e73565b915061331f826132b8565b604082019050919050565b6000602082019050818103600083015261334381613307565b9050919050565b7f496e73756666696369656e7420636f6e74726163742062616c616e636520746f60008201527f2077697468647261772121000000000000000000000000000000000000000000602082015250565b60006133a6602b83612e73565b91506133b18261334a565b604082019050919050565b600060208201905081810360008301526133d581613399565b9050919050565b600081905092915050565b50565b60006133f76000836133dc565b9150613402826133e7565b600082019050919050565b6000613418826133ea565b9150819050919050565b7f5472616e73666572206661696c65642100000000000000000000000000000000600082015250565b6000613458601083612e73565b915061346382613422565b602082019050919050565b600060208201905081810360008301526134878161344b565b9050919050565b7f5573657220646f65736e27742065786973747321000000000000000000000000600082015250565b60006134c4601483612e73565b91506134cf8261348e565b602082019050919050565b600060208201905081810360008301526134f3816134b7565b9050919050565b7f5573657220686173206e6f742072656e74656420612063617221000000000000600082015250565b6000613530601a83612e73565b915061353b826134fa565b602082019050919050565b6000602082019050818103600083015261355f81613523565b9050919050565b7f4e487b7100000000000000000000000000000000000000000000000000000000600052601160045260246000fd5b60006135a0826127b7565b91506135ab836127b7565b92508282039050818111156135c3576135c2613566565b5b92915050565b7f74696d657374616d70206973207a65726f212100000000000000000000000000600082015250565b60006135ff601383612e73565b915061360a826135c9565b602082019050919050565b6000602082019050818103600083015261362e816135f2565b9050919050565b6000613640826127b7565b915061364b836127b7565b925082820190508082111561366357613662613566565b5b92915050565b7f4361722069736e277420617661696c61626c6520666f72207573652100000000600082015250565b600061369f601c83612e73565b91506136aa82613669565b602082019050919050565b600060208201905081810360008301526136ce81613692565b9050919050565b7f557365722068617320616c72656164792072656e746564206120636172210000600082015250565b600061370b601e83612e73565b9150613716826136d5565b602082019050919050565b6000602082019050818103600083015261373a816136fe565b9050919050565b7f557365722068617320616e206f75747374616e64696e67206465627421000000600082015250565b6000613777601d83612e73565b915061378282613741565b602082019050919050565b600060208201905081810360008301526137a68161376a565b9050919050565b600060808201905081810360008301526137c781876131fd565b905081810360208301526137db81866131fd565b90506137ea6040830185612b5d565b6137f76060830184612b5d565b95945050505050565b7f43617220646f65736e2774206578697374732100000000000000000000000000600082015250565b6000613836601383612e73565b915061384182613800565b602082019050919050565b6000602082019050818103600083015261386581613829565b9050919050565b7f496e73756666696369656e742062616c616e636520746f20776974686472617760008201527f2100000000000000000000000000000000000000000000000000000000000000602082015250565b60006138c8602183612e73565b91506138d38261386c565b604082019050919050565b600060208201905081810360008301526138f7816138bb565b9050919050565b7f5472616e73666572206661696c65640000000000000000000000000000000000600082015250565b6000613934600f83612e73565b915061393f826138fe565b602082019050919050565b6000602082019050818103600083015261396381613927565b9050919050565b7f436172207769746820676976656e20494420646f65736e27742065786973747360008201527f2100000000000000000000000000000000000000000000000000000000000000602082015250565b60006139c6602183612e73565b91506139d18261396a565b604082019050919050565b600060208201905081810360008301526139f5816139b9565b9050919050565b600082905092915050565b613a1183836139fc565b67ffffffffffffffff811115613a2a57613a29612ef0565b5b613a348254612f4e565b613a3f82828561309e565b6000601f831160018114613a6e5760008415613a5c578287013590505b613a66858261310f565b865550613ace565b601f198416613a7c86612f7f565b60005b82811015613aa457848901358255600182019150602085019450602081019050613a7f565b86831015613ac15784890135613abd601f8916826130f1565b8355505b6001600288020188555050505b50505050505050565b7f436172207769746820676976656e20494420646f65736e277420657869737473600082015250565b6000613b0d602083612e73565b9150613b1882613ad7565b602082019050919050565b60006020820190508181036000830152613b3c81613b00565b9050919050565b613b4c816129b6565b82525050565b6000602082019050613b676000830184613b43565b92915050565b6000613b78826127b7565b91507fffffffffffffffffffffffffffffffffffffffffffffffffffffffffffffffff8203613baa57613ba9613566565b5b600182019050919050565b7f4e487b7100000000000000000000000000000000000000000000000000000000600052603260045260246000fd5b7f5573657220686173206e6f206465627420746f20706179210000000000000000600082015250565b6000613c1a601883612e73565b9150613c2582613be4565b602082019050919050565b60006020820190508181036000830152613c4981613c0d565b9050919050565b7f5573657220646f65736e277420686176652073756666696369656e742062616c60008201527f616e636521000000000000000000000000000000000000000000000000000000602082015250565b6000613cac602583612e73565b9150613cb782613c50565b604082019050919050565b60006020820190508181036000830152613cdb81613c9f565b9050919050565b7f4e487b7100000000000000000000000000000000000000000000000000000000600052601260045260246000fd5b6000613d1c826127b7565b9150613d27836127b7565b925082613d3757613d36613ce2565b5b828204905092915050565b6000613d4d826127b7565b9150613d58836127b7565b9250828202613d66816127b7565b91508282048414831517613d7d57613d7c613566565b5b5092915050565b7f5265656e7472616e637947756172643a207265656e7472616e742063616c6c00600082015250565b6000613dba601f83612e73565b9150613dc582613d84565b602082019050919050565b60006020820190508181036000830152613de981613dad565b905091905056fea264697066735822122046dc3ba64abe5c6a589184424dbc7ac716a4e816d316a2856349814e5f15dabb64736f6c63430008120033",
    "immutableReferences": {},
    "source": "// SPDX-License-Identifier: MIT\npragma solidity 0.8.18;\n\nimport \"../../node_modules/@openzeppelin/contracts/utils/Counters.sol\";\nimport \"../../node_modules/@openzeppelin/contracts/security/ReentrancyGuard.sol\";\ncontract CarRentalPlatform is ReentrancyGuard{\n\n\n\n  //***DATA***\n\n  //Counter\n\n    using Counters for Counters.Counter;\n    Counters.Counter private _counter;\n\n  //Owner\n\n   address private owner;\n\n  //totalPayments\n  \n  uint private totalPayments;\n\n  //user struct\n\n  struct User{\n   address walletAddress;\n   string name;\n   string lastname;\n   uint rentedCarId;\n   uint balance;\n   uint debt;\n   uint start;\n  }\n\n  //car struct\n\n  struct Car{\n    uint id;\n    string name;\n    string imgUrl;\n    Status status;\n    uint rentFee;\n    uint saleFee;\n  }\n\n  //enum to indicate the status of the car\n\n  enum Status{\n    Retired,\n    InUse,\n    Available\n  }\n\n  //events\n\n  event CarAdded(uint indexed id, string name, string imgUrl, uint rentFee, uint saleFee);\n  event CarMetaDataEdited(uint indexed id , string name, string imgUrl, uint rentFee, uint saleFee);\n  event CarStatusEdited(uint indexed id,Status status);\n  event UserAdded(address indexed walletAddress, string name, string lastname);\n  event Deposit(address indexed walletAddress, uint amount);\n  event CheckOut(address indexed walletAddress, uint indexed carId);\n  event CheckIn(address indexed walletAddress, uint indexed carId);\n  event PaymentMade(address indexed walletAddress, uint amount);\n  event BalanceWithdrawn(address indexed walletAddress, uint amount);\n\n  //user mapping\n\n  mapping(address => User) private users;\n  \n  //car mapping\n\n  mapping(uint => Car) private cars;\n\n  //Constructor\n\n  constructor(){\n    owner=msg.sender;\n    totalPayments=0;\n  \n  }\n\n  //***MODIFIERS***\n\n  //onlyOwner\n\n  modifier onlyOwner(){\n    require(msg.sender==owner,\"Only the owner can call this function\");\n    _;\n  }\n\n  //***FUNCTIONS\n\n  //*Execute Functions \n\n  //setOwner #onlyOwner\n\n  function setOwner(address _newOwner) external onlyOwner{\n    owner=_newOwner;\n  }\n\n  //addUser #nonExisting\n\n  function addUser(string calldata name, string calldata lastname) external{\n    require(!isUser(msg.sender),\"User already exists!\");\n    users[msg.sender]= User(msg.sender, name, lastname, 0, 0, 0,0);\n\n    emit UserAdded(msg.sender,users[msg.sender].name, users[msg.sender].lastname);\n  }\n\n  //addCar #onlyOwner #nonExistingCar\n\n  function addCar(string calldata name, string calldata url, uint rent, uint sale) external onlyOwner{\n    _counter.increment();\n    uint counter=_counter.current();\n    cars[counter]=Car(counter, name, url, Status.Available, rent, sale);\n    emit CarAdded(counter, cars[counter].name, cars[counter].imgUrl,cars[counter].rentFee,cars[counter].saleFee);\n  }\n\n  //editCarMetaData #onlyOwner #existingCar\n\n  function editCarMetaData(uint id, string calldata name, string calldata imgUrl, uint rentFee, uint saleFee) external onlyOwner{\n   require(cars[id].id !=0, \"Car with given ID doesn't exists!\");\n   Car storage car= cars[id];\n   if(bytes(name).length !=0){\n    car.name=name;\n   }\n      if(bytes(imgUrl).length !=0){\n    car.imgUrl=imgUrl;\n   }\n      if(rentFee>0){\n     car.rentFee=rentFee;\n   }\n      if(saleFee >0){\n    car.saleFee=saleFee;\n    \n   }\n\n   emit CarMetaDataEdited(id,car.name,car.imgUrl,car.rentFee,car.saleFee);\n  }\n\n  //editCarStatus #onlyOwner #existingCar\n\n  function editCarStatus(uint id, Status status) external onlyOwner{\n    require(cars[id].id !=0,\"Car with given ID doesn't exists\");\n    cars[id].status=status;\n    emit CarStatusEdited(id, status);\n  }\n\n  //checkOut #existingUser #isCarAvailable #userHasNotRentedACar #userHasNoDebt\n\n  function checkOut(uint id) external{\n    require(isUser(msg.sender),\"User doesn't exists!\");\n    require(cars[id].status==Status.Available,\"Car isn't available for use!\");\n    require(users[msg.sender].rentedCarId==0,\"User has already rented a car!\");\n    require(users[msg.sender].debt==0,\"User has an outstanding debt!\");\n\n    users[msg.sender].start=block.timestamp-6000;//waiting time added manually to here since it not worked in the test and start time==time stamp error!!\n    users[msg.sender].rentedCarId=id;\n    cars[id].status= Status.InUse;\n\n    emit CheckOut(msg.sender,id);\n  }\n\n  //checkIn #existingUser #userHasRentedACar\n\n  function checkIn() external {\n     require(isUser(msg.sender),\"User doesn't exists!\");\n     uint rentedCarId=users[msg.sender].rentedCarId;\n     require(rentedCarId !=0,\"User has not rented a car!\");\n     uint usedSeconds = block.timestamp - users[msg.sender].start;\n     \n     require(block.timestamp!=0,\"timestamp is zero!!\");\n     uint rentFee=cars[rentedCarId].rentFee;\n    \n     users[msg.sender].debt += calculateDept(usedSeconds, rentFee);\n     \n\n     users[msg.sender].rentedCarId=0;\n     users[msg.sender].start=0;\n     cars[rentedCarId].status=Status.Available;\n\n     emit CheckIn(msg.sender, rentedCarId);\n  }\n\n  //deposit #existingUser\n\n  function deposit() external payable{\n    require(isUser(msg.sender),\"User doesn't exists!\");\n    users[msg.sender].balance+=msg.value;\n\n    emit Deposit(msg.sender,msg.value);\n    }\n\n  //makePayment #existingUser #existingDept #sufficientBalance\n\n  function makePayment() external{\n    require(isUser(msg.sender),\"User doesn't exists!\");\n    require(users[msg.sender].debt>0,\"User has no debt to pay!\");\n    require(users[msg.sender].balance>=users[msg.sender].debt,\"User doesn't have sufficient balance!\");\n    \n    unchecked {\n     users[msg.sender].balance -=users[msg.sender].debt;\n    }\n\n    totalPayments +=users[msg.sender].debt;\n    users[msg.sender].debt=0;\n\n    emit PaymentMade(msg.sender, users[msg.sender].debt);\n\n  }\n\n  //withdrawBalance #existingUser\n\n  function withDrawBalance(uint amount) external nonReentrant{\n    require(isUser(msg.sender),\"User doesn't exists!\");\n    uint balance= users[msg.sender].balance;\n    require(balance >= amount,\"Insufficient balance to withdraw!\");\n\n    unchecked {\n      users[msg.sender].balance -=amount;\n    }\n\n    (bool success, )= msg.sender.call{value: amount}(\"\");\n    require(success, \"Transfer failed\");\n\n    emit BalanceWithdrawn(msg.sender, amount);\n\n  }\n\n\n  //withdrawOwnerBalance #onlyOwner\n\n  function withDrawnOwnerBalance(uint amount) external onlyOwner{\n   \n      require(totalPayments >= amount,\"Insufficient contract balance to withdraw!!\");\n      \n      (bool success, ) = owner.call{value:amount}(\"\");\n      require(success,\"Transfer failed!\");\n\n      unchecked {\n        totalPayments -=amount;\n      }\n\n\n\n  }\n\n  //*Query Functions\n\n  //getOwner\n\n  function getOwner() external view returns(address){\n    return owner;\n  }\n\n  //isUser\n\n  function isUser(address walletAddress) private view returns(bool){\n    return users[walletAddress].walletAddress != address(0);\n  }\n\n  //getUser #existingUser\n\n  function getUser(address walletAddress) external view returns(User memory){\n    require(isUser(walletAddress),\"User doesn't exists!\");\n    return users[walletAddress];\n  }\n\n  //getCar #existingCar\n  function getCar(uint id) external view returns (Car memory){\n    require(cars[id].id !=0,\"Car doesn't exists!\");\n    return cars[id];\n  }\n\n  //getCarByStatus\n\n  function getCarsByStatus(Status _status) external view returns(Car[] memory){\n    uint count= 0;\n    uint length= _counter.current();\n    for(uint i=1;i<=length;i++){\n      if(cars[i].status==_status){\n        count++;\n      }\n    }\n    Car[] memory carsWithStatus= new Car[](count);\n    count=0;\n    for(uint i=1; i<= length;i++){\n      if(cars[i].status==_status){\n        carsWithStatus[count]=cars[i];\n        count++;\n      }\n    }\n\n    return carsWithStatus;\n  }\n\n  //calculateDept\n\n  function calculateDept(uint usedMiliSeconds, uint rentFee) private pure returns(uint){\n    uint usedSeconds=usedMiliSeconds/1000;//converts mili seconds to seconds!\n    return usedSeconds*rentFee;//calculate rent fee by seconds!\n  }\n\n  //getCurrentCount\n\n  function getCurrentCount() external view returns(uint){\n    return _counter.current();\n  }\n\n  //getContractBalance #onlyOwner\n  function getContractBalance() external view onlyOwner returns(uint){\n    return address(this).balance;\n  }\n\n  //getTotalPayment #onlyOwner\n\n  function getTotalPayments() external view onlyOwner returns(uint){\n    return totalPayments;\n  }\n\n\n\n}\n",
    "sourcePath": "C:\\Users\\USER\\OneDrive\\Masast\\Belgeler\\solidity_bootcamp\\DEMO\\contracts\\bsc\\CarRentalPlatform.sol",
    "compiler": {
        "name": "solc",
        "version": "0.8.18+commit.87f61d96.Emscripten.clang"
    },
    "schemaVersion": "3.4.14",
    "updatedAt": "2023-06-22T12:41:51.501Z",
    "networkType": "ethereum",
    "devdoc": {
        "kind": "dev",
        "methods": {},
        "version": 1
    },
    "userdoc": {
        "kind": "user",
        "methods": {},
        "version": 1
    },
    "db": {
        "callBytecode": {
            "id": "0x18f6f6b5f69748edbf5df9a3630476e6d4a7cd1ab137de18dff05d0404f0aac6"
        },
        "createBytecode": {
            "id": "0x4e1ddea0683a8dd5abcc37c6accd2e6eda0732ac8fff9e53834e14f014a43b7a"
        },
        "contract": {
            "id": "0x9491f07718e666936ad3b0d283ec6957787cd7504e7adcf5a477c28b0bbafed1"
        }
    }
}